:020000040800F2
:10000000F806002001010008E90B0008DB0B0008DE
:10001000E50B0008B10800088D1C00080000000076
:10002000000000000000000000000000B113000804
:100030000D09000800000000CD100008351500086B
:100040001B0100081B0100081B0100081B01000820
:100050001B0100081B0100081B0100081B01000810
:100060001B0100081B0100081B0100081B01000800
:100070001B0100081B0100081B0100081B010008F0
:100080001B0100081B0100081B0100081B010008E0
:100090001B0100081B0100081B0100081B010008D0
:1000A0001B0100081B0100081B0100081B010008C0
:1000B0001B0100081B010008991500081B0100081E
:1000C0001B0100081B0100081B0100081B010008A0
:1000D0001B010008F11700081B0100081518000893
:1000E0001B0100081B0100081B010008DFF80CD0F1
:1000F00000F010FB00480047051D0008F80600202E
:100100000648804706480047FEE7FEE7FEE7FEE7B1
:10011000FEE7FEE7FEE7FEE7FEE7FEE7391500082B
:10012000ED000008F0B480EA0102D40F4200B2EB07
:10013000410F02D20246084611464A0042D0C30D82
:10014000DDB2C1F3C752AD1A202D35DAC1F3160165
:1001500041F4000204B15242C5F1200602FA06F150
:100160002A411044B3EBD05F23D0C4B1012DA0EBE2
:10017000C35009DCF0BC4FF0004202EAC352DBB2CC
:1001800000F5000000F03BBA400000F1807000EB89
:10019000C350A0F1807040EAD170490009E04908DD
:1001A00041EAC071A0EBC35000F50000400800EB2D
:1001B000C350F0BC00F01ABA6142012202EB4101C7
:1001C000001BF6E7F0BC704781F00041AAE780F021
:1001D0000040A7E780EA010210B502F000434000AA
:1001E00022D04A001FD0010E01EB1261C0F356006D
:1001F000C2F3560240F4000042F40002A0FB0220C9
:1002000000047F39140400D0401C50EA124001D48D
:100210004000491EC2B20C0604EBD010401C40083E
:10022000802A02D003E0002010BD20F00100002948
:1002300000DA0020184310BD30B480EA010202F059
:10024000004530F0004221F0004013D090B1C30DC2
:10025000D40DC2F31601C0F31600E41A41F40001F4
:1002600040F400027D34914201D3641C00E0490057
:10027000002C02DA30BC002070474FF4000000234D
:10028000914201D3891A034340084FEA4101F7D153
:1002900051B1914202D14FF0004105E002D24FF03E
:1002A000010101E06FF0010103EBC450284430BCB0
:1002B00000F09CB92DE9FE4F804681EA0300C00F93
:1002C0000C46009021F0004123F00045B8EB0200FD
:1002D000A94105D24046214690461C460B4602469F
:1002E00023F00040104347D0270DC7F30A00C3F3A3
:1002F0000A510290401A019040286BDAC3F31300B0
:1003000040F4801B0098924620B10023D2EB030AF0
:1003100063EB0B0B01985946C0F14002504600F0C8
:1003200044F906460D4650465946019A00F04CF9EC
:1003300010EB08006141002487EA115284EAE77358
:100340001A4340D0009A62B3019A012A4FEA075239
:1003500015DC001B61EB02014FF0004202EA07527C
:10036000CDE90042001C41F5801132462B4600F0D9
:1003700083F903B0BDE8F08F40462146F9E7001B42
:1003800061EB0201001C41F5801300185B4120184D
:10039000A2F5001747EB030140EAD570B6196D418D
:1003A00011E06D084FEA360645EAC0754FEA07527C
:1003B000001B61EB0201001C41F5801149084FEA66
:1003C00030000019514132462B4603B0BDE8F04FD2
:1003D00000F043B90098012240000023D0EB020254
:1003E00063EBE073009821464FEAE074B8EB00003D
:1003F00061EB0401E9E783F000435BE781F0004132
:1004000058E72DE9FE4F81EA030404F0004421F08F
:10041000004100944FF0000B23F0004350EA010428
:100420005ED052EA03045BD0C3F30A54C1F30A5509
:100430002C44A4F2F3340194A0FB0254C1F3130141
:1004400041F48011C3F3130343F4801301FB02440E
:1004500000FB034E840A970A44EA815447EA835713
:10046000A4FB076802958D0A05FB07854FEA932CCC
:1004700004FB0C542705029D4FEA065847EA16373D
:10048000B5EB08056EEB070C870E920E47EA811755
:1004900042EA8312A7FB0201B6EB0B0164EB0004F6
:1004A0002B0D43EA0C335E1844EB1C50DA465146E0
:1004B000E7FB0201C5F313044FEA0B3343EA14537D
:1004C0004FEA0432019C43EA0603A4F10C040294AF
:1004D000009CCDE900B400F0CFF803B0BDE8F08F88
:1004E00000200146F9E7C10F80EAE0700844CA071E
:1004F0009623002100F083B896230022114600F0D5
:100500007EB80EB5C10F80EAE0700844CA0700212A
:1005100040F233438DE80E000A460B4600F0ACF87B
:1005200003B000BD20F00040C10DC0F3160040F440
:1005300000007F2901DA00207047962903DCC1F111
:100540009601C840704796398840704700F00042D5
:1005500030F000400AD0C10D01F56071C0F3160003
:1005600042EA0151C208400711437047002001468A
:10057000704701F0004330B421F0004150EA01021D
:1005800006D00A0DA2F56072C1F31301002A02DC45
:1005900030BC00207047440F44EAC104C100E01899
:1005A00030BC00EBC25000F021B8202A04DB203A16
:1005B00000FA02F1002070479140C2F1200320FAB6
:1005C00003F3194390407047202A06DBCB17203AEB
:1005D00041FA02F043EAE07306E041FA02F3D04048
:1005E000C2F1200291400843194670470029A8BF74
:1005F0007047401C490008BF20F00100704710B44C
:10060000B0FA80FC00FA0CF050EA010404BF10BC00
:10061000704749B1CCF1200421FA04F411FA0CF12D
:1006200018BF012121430843A3EB0C01CB1D4FEA66
:1006300000614FEA102042BF002010BC704700EB61
:10064000C35010440029A4BF10BC7047401C49008F
:1006500008BF20F0010010BC704710B5141E73F1E4
:10066000000408DA401C41F1000192185B411A4372
:1006700001D120F0010010BD2DE9F04D92469B46BE
:1006800011B1B1FA81F202E0B0FA80F22032904664
:10069000FFF78BFF04460F4640EA0A0041EA0B01D0
:1006A00053465A46084313D0114653EA010019D065
:1006B000C8F14002504600F03FF805460E4650464D
:1006C00059464246FFF771FF084305D0012004E078
:1006D00020463946BDE8F08D0020054346EAE07625
:1006E0002C4337430A986305E40AA0EB0800002274
:1006F000FD0A44EA47540A3002D500200146E9E7E2
:10070000010510196941DDE9084500196941BDE895
:10071000F04DA2E7064C074D06E0E06840F001030B
:1007200094E8070098471034AC42F6D3FFF7E2FC98
:10073000C4210008E4210008202A04DB203A21FA21
:1007400002F00021704721FA02F3D040C2F12002EA
:1007500091400843194670472DE9F04F87B0054690
:1007600000240026A146A346A2460020069001E0F0
:10077000601CC4B2285D0028FAD1264600240EE091
:10078000285D2E2800D1A146701EA04205D1B9F1E6
:10079000000F02D1601C00F0FF09601CC4B2B4421B
:1007A000EEDB002410E0295DA1F13000FFF79BFE95
:1007B00007461E495846FFF70DFD80463946FFF7AC
:1007C000B1FC8346601CC4B24C45ECDB701EC4B265
:1007D00020E0295DA1F13000FFF793FE0746144A9F
:1007E000144BFFF70EFECDE902015046FFF7AEFEB7
:1007F00007460F4A0F4BFFF704FECDE90001DDE984
:100800000223FFF757FDCDE90401FFF7B2FE824650
:10081000601EC4B24C45DCDC51465846FFF782FCF2
:100820000690069807B0BDE8F08F00000000204158
:100830009A9999999999B93F10B50446EE2000F01C
:10084000B9FDB12000F0B6FD122000F0B3FD200A82
:1008500000F0B0FDE0B200F0ADFD10BD10B5FF201E
:1008600000F0A8FDFC2000F0A5FDFF2000F0A2FD97
:10087000FF2000F09FFD10BD70B504460D46200A14
:1008800000F098FDE0B200F095FD284600F09CF9DC
:10089000C0F30726304600F08DFD284600F094F99D
:1008A000C6B2304600F086FD284600F09BFD70BDC4
:1008B00000BFFEE738B5114800798DF800000F48F9
:1008C000C0788DF801000D4880798DF802000B4842
:1008D00040798DF80300684600F081F90849086006
:1008E000084907480068FFF775FC0546FFF71AFE40
:1008F00004462146044800F02FFB38BD600200206A
:10090000280000200000C842A1020020704700001B
:1009100038B5114800798DF800000F48C0788DF87F
:1009200001000D4880798DF802000B4840798DF860
:100930000300684600F053F9084908600849074871
:100940000068FFF747FC0546FFF7ECFD044621462B
:10095000044800F001FB38BD600200202C0000209C
:100960000000C842AB02002070472DE9F04102466A
:1009700000250026002000230024002791F803C052
:100980000CF00F0591F803C00CF0100CBCF1000F37
:1009900003D091F802C04CEA050591F800C0BCF103
:1009A000000F31D0146800202BE04FF0010C0CFA3E
:1009B00000F3B1F800C00CEA03069E4220D1830088
:1009C0004FF00F0C0CFA03F7BC4305FA03FC4CEA9A
:1009D000040491F803C0BCF1280F06D14FF0010CBC
:1009E0000CFA00FCC2F814C00AE091F803C0BCF194
:1009F000480F05D14FF0010C0CFA00FCC2F810C0F2
:100A0000401C0828D1D31460B1F800C0BCF1FF0F1E
:100A100034DD546800202EE000F1080C4FF001088E
:100A200008FA0CF3B1F800C00CEA03069E4221D18B
:100A300083004FF00F0C0CFA03F7BC4305FA03FCDC
:100A40004CEA040491F803C0BCF1280F05D100F171
:100A5000080C08FA0CF8C2F8148091F803C0BCF135
:100A6000480F07D100F1080C4FF0010808FA0CF804
:100A7000C2F81080401C0828CED35460BDE8F08135
:100A800008B50121142000F019FC4020ADF8000049
:100A900048208DF8030069460A48FFF766FF0120E9
:100AA000ADF8000010208DF8030003208DF802003F
:100AB00069460548FFF759FF0121034800F008F88F
:100AC00008BD00000010014000080140416170476E
:100AD0000161704710B537480068FA281CD108201A
:100AE0003549087041023548FFF7F2FF01203449CB
:100AF00008700420487000208870C87008710A20AF
:100B00004871702088710D20C871012240F2277150
:100B10002C4800F0A6FF4BE026480068B0F5FA7FAD
:100B20001CD108202449087041022448FFF7D0FF57
:100B30000220234908700320487000208870C87084
:100B400008710A204871C5208871FE20C8710122F1
:100B500040F227711B4800F084FF29E01548006827
:100B600040F2EE2188421BD108201349087041024F
:100B70001248FFF7ADFF03201149087048700020AC
:100B80008870C87008710A204871C42088712F20AD
:100B9000C871012240F227710A4800F062FF07E0A5
:100BA00004480068B0F57A7F02D30020014908604C
:100BB00010BD0000340000201D000020000C01408A
:100BC000800200200048004001460A4600E0491C1F
:100BD00008780028FBD1881A704700BFFEE701465D
:100BE0000868704700BFFEE7704710B50122022178
:100BF000032000F002FC10BD08B54FF4A06000F027
:100C00005DF827208DF8000001208DF801000320F9
:100C10008DF8020001208DF80300684600F016F8F8
:100C200008BD08B54FF4A06000F048F825208DF805
:100C3000000001208DF8010002208DF80200012043
:100C40008DF80300684600F001F808BD70B500217A
:100C500000230F22C47804B3154C246804F4E06424
:100C6000C4F5E064210AC1F10403CA40447804FADF
:100C700003F184781440214309010E4C0678A155F4
:100C8000047804F01F050124AC4005786D11AD0017
:100C900005F1E025C5F8004109E0047804F01F05DE
:100CA0000124AC40044D0678761145F8264070BD0D
:100CB0000CED00E000E400E080E100E002490143C7
:100CC000024A1160704700000000FA050CED00E0D8
:100CD00070B506460C461546032E7DD1012C1FD15A
:100CE000012D1DD108207849087041027748FFF78F
:100CF000EFFE0120764908700620487000208870B9
:100D00004020C870002008716020487188208871D8
:100D10003620C871012240F227716E4800F0A1FE12
:100D20000A2C1FD1012D1DD10820674908704102EE
:100D30006648FFF7CDFE012065490870062048701F
:100D4000002088704120C87000200871022048717E
:100D5000582088711F20C871012240F227715D4818
:100D600000F07FFE092C1FD1012D1DD1082056490E
:100D7000087041025548FFF7ABFE01205449087046
:100D800006204870002088704120C870002008713B
:100D900004204871D82088711D20C871012240F2BA
:100DA00027714C4800F05DFE0B2C21D1012D1FD185
:100DB00008204549087041024448FFF789FE012098
:100DC0004349087006204870002088704120C87090
:100DD00000200871082000E00AE04871D8208871DE
:100DE0001820C871012240F227713A4800F039FEFC
:100DF000082E21D10A2C1FD1012D1DD108203249E6
:100E0000087041023148FFF763FE01203049087045
:100E100006204870002088704020C87000200871AB
:100E200060204871882088710520C871012240F235
:100E30002771284800F015FE0C2E43D1092C41D112
:100E4000012D3FD10D202049087029031F48FFF7CD
:100E50003FFE03201E490870102048700020887053
:100E60000620C87000200871022048710420887193
:100E70001948FFF779FD000A1549C8711648FFF7B0
:100E800073FD134908721448FFF76EFD000E1049F8
:100E900048721148FFF768FD000C0D4988720B215C
:100EA0000B4801F073F80A49C8720B21084801F099
:100EB0006DF8000A06490873012240F227710548BF
:100EC00000F0CFFD70BD00001D000020000C0140AF
:100ED0008002002000480040B090833F7047704778
:100EE0007047704770B504AC70CC70BD0149088084
:100EF0007047000048000020704770472DE9F0411E
:100F000004460D461646032C16D1082D14D1304642
:100F1000FFF722FC0B4908600B480068FFF7ECFA6A
:100F200080460A49FFF788F90746394605480068B0
:100F3000FFF782F903490860082C00D100BFBDE823
:100F4000F08100004C000020200000200000C8427A
:100F5000704770477047000010B5642913D23022E3
:100F600002702E2242700A22B1FBF2F230328270FD
:100F70000A22B1FBF2F302FB13123032C2702022BC
:100F8000027142719FE0642923D3B1F57A7F20D2A8
:100F90006422B1FBF2F2303202702E2242706422DF
:100FA000B1FBF2F302FB13120A23B2FBF3F230326D
:100FB00082706422B1FBF2F302FB13120A23B2FB2C
:100FC000F3F403FB14223032C2702022027142710A
:100FD00079E0B1F57A7F3BD342F21072914237D279
:100FE0004FF47A72B1FBF2F2303202704FF47A723F
:100FF000B1FBF2F302FB13126423B2FBF3F23032C3
:1010000042702E2282704FF47A72B1FBF2F302FB2F
:1010100013126423B2FBF3F403FB14220A23B2FB82
:10102000F3F23032C2704FF47A72B1FBF2F302FB8A
:1010300013126423B2FBF3F403FB14220A23B2FB62
:10104000F3F403FB142230320271202242713AE0A1
:1010500042F21072914236D31B4A914233D242F28D
:101060001072B1FBF2F23032027042F21072B1FB38
:10107000F2F302FB13124FF47A73B2FBF3F2303245
:1010800042701A46B1FBF2F302FB13126423B2FB67
:10109000F3F2303282702E22C2706422B1FBF2F37E
:1010A00002FB13120A23B2FBF3F230320271642204
:1010B000B1FBF2F302FB13120A23B2FBF3F403FBBE
:1010C00014223032427110BDA0860100704700002A
:1010D00000B50C480179C07801EB00200A4908608E
:1010E0000848007D00EB8000400008490860064881
:1010F00001680748FFF730FF044801680548FFF71B
:101100002BFF00BD600200202000002024000020F2
:101110008D020020970200202DE9FE4F04460D4667
:101120006678A77894F807802079E17840EA012969
:10113000A079617940EA012A207A0106607A41EAC1
:101140000041A07A41EA0020E17A40EA010B0D2E2D
:101150002CD008DC012E0FD0032E0ED00B2E29D060
:101160000C2E6FD11EE00F2E2CD0552E6BD0B12E31
:1011700043D0F72EF5D12BE000BF474B5B79DFF86A
:1011800018C19CF804C043EA0C22434BDB78DFF81B
:1011900008C19CF802C043EA0C213F4B5878FFF786
:1011A000D8FE76E00120FFF7D5FE72E00020FFF7C1
:1011B000D1FE6EE0A81F82B23749891C0120FFF7DB
:1011C00090FE66E0002211461046FFF78AFE60E0BE
:1011D0003148017AC079304A9279DFF8BCC0CDE954
:1011E000002002919CF805309CF804209CF8031024
:1011F0009CF80200FFF776FE4BE0012F03D1484632
:10120000FFF774FE40E0A8F110000C283AD2DFE8A6
:1012100000F0060C131B213939343939272E627A34
:1012200051464846FFF754FD2DE004F108025146AF
:101230004846FFF763FE26E05A4651464846FFF708
:101240004FFE20E024E020E05A4651464846FFF792
:1012500054FE18E05A4651464846FFF740FE12E059
:10126000637A227A51464846FFF738FE0BE0227A2D
:1012700051464846FFF740FE05E051464846FFF715
:1012800067FE00E000BF00BF03E0FFF7AEFC00E038
:1012900000BF00BFBDE8FE8FB502002029B1064A9D
:1012A000D2690243044BDA6104E0034AD269824303
:1012B000014BDA61704700000010024029B1064A74
:1012C00092690243044B9A6104E0034A92698243A3
:1012D000014B9A61704700000010024030B50021B8
:1012E0000022002400232D4D6D6805F00C0121B172
:1012F000042905D0082923D105E0294D056022E005
:10130000274D05601FE0254D6D6805F47012234DD3
:101310006D6805F48034022505EB92421CB9214D1D
:10132000554305600BE01D4D6D6805F400351DB19A
:101330001C4D5543056002E0194D5543056002E020
:10134000174D056000BF00BF144D6D6805F0F0013A
:101350000909154D6B5C0568DD4045600F4D6D68F2
:1013600005F4E061090A104D6B5C4568DD4085605D
:101370000A4D6D6805F46051C90A0B4D6B5C4568F8
:10138000DD40C560054D6D6805F44041890B074D92
:101390006B5CC568B5FBF3F5056130BD001002401C
:1013A00000127A0000093D0000000020100000201B
:1013B0007047000010B504462146094800F0EFFBD5
:1013C00000BF8021064800F015FB0028F9D000BFBF
:1013D0004021034800F00EFB0028F9D010BD0000AA
:1013E0000038014010B5044603E02078FFF7E2FF23
:1013F000641C20780028F8D110BD70B504460D4655
:101400001646EE20FFF7D6FFB120FFF7D3FF1020DE
:10141000FFF7D0FF200AFFF7CDFFE0B2FFF7CAFFCA
:10142000280AFFF7C7FFE8B2FFF7C4FFF0B2FFF7E3
:10143000C1FFFF20FFF7BEFFFC20FFF7BBFFFF202F
:10144000FFF7B8FFFF20FFF7B5FF70BD10B500F044
:1014500001F810BD0CB500200190009033480068E1
:1014600040F480303149086000BF3048006800F423
:10147000003000900198401C0190009818B9019824
:10148000B0F5A06FF1D12948006800F4003010B128
:101490000120009001E0002000900098012843D135
:1014A0002348006840F010002149086008460068A1
:1014B00020F0030008600846006840F00200086061
:1014C0001A4840681949486008464068486008461C
:1014D000406840F4806048600846406820F47C1012
:1014E00048600846406840F4E810486008460068D4
:1014F00040F08070086000BF0C48006800F0007089
:101500000028F9D00948406820F0030007494860E6
:101510000846406840F00200486000BF0348406849
:1015200000F00C000828F9D10CBD000000100240AA
:10153000002002407047000010B51348006840F0DA
:1015400001001149086008464068104908400E49EA
:101550004860084600680E4908400B490860084684
:10156000006820F4802008600846406820F4FE00EF
:1015700048604FF41F008860FFF768FF4FF000607D
:101580000449086010BD0000001002400000FFF890
:10159000FFFFF6FE08ED00E010B50121134800F052
:1015A0009CF808B312480068401C114908601148B3
:1015B0000068401C0F4908600F480068401C0E4935
:1015C00008600E480068401C0C4908600C48006820
:1015D000401C0B4908600B480068401C0949086022
:1015E0000121024800F061F810BD00000008004031
:1015F0003400002030000020380000203C00002093
:1016000040000020440000200EB500F080F80121C9
:101610000220FFF743FE4720ADF800000020ADF8A0
:1016200002000920ADF804000020ADF8060069466C
:10163000144800F07FF80121124800F027F801213A
:101640000420FFF72BFE4720ADF800000020ADF886
:10165000020040F2E730ADF804000020ADF80600CB
:101660006946094800F066F80121074800F01AF8B9
:1016700001221146044800F041F80121024800F01F
:1016800017F80EBD000400400008004021B1028898
:1016900042F08002028004E002884FF67F731A4015
:1016A00002807047CA4302827047CA430282704771
:1016B00021B1028842F00102028004E002884FF664
:1016C000FE731A400280704702460020138A0B40C6
:1016D0000BB1012000E00020704730B50246002029
:1016E00000230024158A05EA0103958905EA01040F
:1016F00013B10CB1012000E0002030BD1AB1838984
:101700000B43838102E083898B438381704708B553
:101710004FF4A060FFF7D2FA1E208DF800000120E0
:101720008DF801008DF802008DF803006846FFF780
:101730008DFA08BD002202881D4B98420ED01D4B29
:1017400098420BD0B0F1804F08D01B4B984205D087
:101750001A4B984202D01A4B984204D14FF68F731D
:101760001A404B881A43174B984207D0164B9842A1
:1017700004D04FF6FF431A40CB881A4302808B886F
:1017800083850B8803850A4B98420BD0094B9842FE
:1017900008D00E4B984205D00D4B984202D00D4B0D
:1017A000984201D10B7A038601238382704700009F
:1017B000002C0140003401400004004000080040BB
:1017C000000C0040001000400014004000400140A8
:1017D000004401400048014000B50348FFF7C4F849
:1017E0000249086000BD00009A9919405400002089
:1017F00010B540F22551064800F009F938B1044807
:1018000000F0C8F9C4B2204600F024FB00BF10BDB0
:101810000038014010B540F22551424800F0F7F879
:1018200000284FD03F4800F0B5F93F493F4A1278B1
:1018300088540846007801280BD008460078022812
:1018400007D008460078032803D0084600780A2805
:1018500002D101203649087035480078012804D1AA
:1018600032480078401C3149087030480078192807
:1018700028D100202D4908702D4908702A48007889
:10188000012806D002280AD003280ED00A2818D131
:1018900011E0002027490860FFF71AFC11E0002042
:1018A00025490860FFF706F80BE00020234908608F
:1018B000FFF72EF805E0002021490860FFF78CFFB4
:1018C00000BF00BF40F22771164800F0A0F838B3FF
:1018D0001C4800781C49097888420CDA1B48194AD0
:1018E0001278815C0F4800F05AF916480078401CC5
:1018F0001449087014E000BF40210A4800F07AF84B
:101900000028F9D0002240F22771064800F0A9F81B
:101910004FF480510E48FFF7D9F8002009490870AC
:1019200010BD000000480040600200201C000020A4
:1019300059000020380000203C000020400000201A
:1019400044000020580000201D00002080020020DC
:10195000000C014021B1828942F40052828104E0EE
:1019600082894DF6FF731A40828170471FB54FF48C
:10197000165000900020ADF80400ADF80600ADF858
:101980000800ADF80C000C20ADF80A0069460748C5
:1019900000F08CF8012240F22551044800F061F873
:1019A00001210248FFF7D6FF1FBD000000380140AB
:1019B00008B5012144F20400FFF780FC4FF40070E9
:1019C000ADF8000003208DF8020018208DF8030008
:1019D00069460748FEF7C9FF4FF48060ADF8000084
:1019E00004208DF8030069460148FEF7BEFF08BDDC
:1019F0000008014002460020B1F5007F00D100BF81
:101A000013880B400BB1012000E00020704770B537
:101A10000246002400230025002040F66A16B14249
:101A200000D100BFC1F3421501F01F03012606FAE1
:101A300003F3012D02D19689334006E0022D02D135
:101A4000168A334001E0968A33400C12012606FACA
:101A500004F41688344013B10CB1012000E00020DA
:101A600070BDF0B50346002400260025002040F696
:101A70006A17B94200D100BF1846C1F3421401F001
:101A80001F06012707FA06F5012C01D10C3004E0EE
:101A9000022C01D1103000E014301AB107682F4336
:101AA000076002E00768AF430760F0BD2DE9F0472B
:101AB00086B005460E460024A24600BFA146002778
:101AC000B08900B100BF2F462C8A4CF6FF7004404D
:101AD000F08804432C82AC894EF6F3100440B088A1
:101AE00031890843718908430443AC81AC8A4FF6BD
:101AF000FF400440B0890443AC8201A8FFF7EEFB2D
:101B00001F48874202D1DDF810A001E0DDF80CA0EB
:101B1000A88900F4004040B10AEBCA0000EB0A10AB
:101B200031684900B0FBF1F807E00AEBCA0000EBAE
:101B30000A1031688900B0FBF1F86420B8FBF0F0BE
:101B400004012009642101FB1089A88900F40040E8
:101B500040B1322000EBC900B0FBF1F000F007000B
:101B6000044308E0322000EB09106421B0FBF1F0DF
:101B700000F00F0004432C8106B0BDE8F0870000A0
:101B80000038014010B5FFF74CF8FFF711FFFFF7E1
:101B9000EDFE10BD01468888C0F308007047C1F310
:101BA000080282807047000010B52A48008800288B
:101BB0004FD1FEF741FE28490720FEF75DFE274979
:101BC0000C20FEF759FE26490D20FEF755FE25494B
:101BD0000F20FEF751FE2448006841F28831884208
:101BE00004D222A11620FEF747FE03E022A1162010
:101BF000FEF742FE2248006841F28831884204D252
:101C00001AA11920FEF738FE03E01BA11920FEF7E8
:101C100033FE1C48006841F28831884204D213A187
:101C20001B20FEF729FE03E013A11B20FEF724FE74
:101C30001548006841F28831884204D20BA11D206A
:101C4000FEF71AFE03E00CA11D20FEF715FEFEF7BD
:101C500005FE10BD480000208D020020A1020020DA
:101C6000AB0200209702002038000020C1ACBDD399
:101C7000D5FDB3A300000000CEB4C1ACBDD30000BD
:101C80003C000020400000204400002000BFFEE790
:101C900002E008C8121F08C1002AFAD17047704735
:101CA000002001E001C1121F002AFBD17047000093
:101CB00010B5044601210C48FFF7FAFC0AE000BF0A
:101CC00001210948FFF700FD0028F9D0012106484D
:101CD000FFF7E8FC201EA4F101018CB2EFD1002136
:101CE0000148FFF7E5FC10BD0004004010B50446B4
:101CF00002E06420FFF7DCFF201EA4F101018CB29A
:101D0000F7D110BD0024FFF77FFC00F0DDF8FFF7EE
:101D100039FFFEF7B5FE00F0B5F84FF49670FFF707
:101D2000E5FF31E04021194800F038F80446002C66
:101D300008DD16484078072804D021461348FFF7ED
:101D4000EBF915E0002C13DD1048407807280FD17F
:101D500071B600BF0E48006800F4E0600D4908430A
:101D6000001D0B490860BFF34F8F00BF00BFFEE7A7
:101D7000FEF7B0FE08480068B0F5FA7F04D30020F3
:101D800005490860FFF710FFCCE70000B50200200E
:101D90000CED00E00000FA0530000020F8B5044624
:101DA0000D460026002000902FE0684600F038F82D
:101DB0001948008820B99DF80000EE2800D024E0E2
:101DC00015480088A84208DA9DF8001012480288D9
:101DD0000088401C104B1880A1549DF800000F494A
:101DE000096840EA01200D490860084600686FF460
:101DF0004031884208D10848068800200749086019
:101E0000054908803046F8BD00BF00F04BF80028B7
:101E1000CBDC0020F7E700001800002014000020B1
:101E200001460B4840880A4A128890420FD0084861
:101E30004288001D805C0870054A5288501CC217F9
:101E400000EBD2525212A0EB4222014B5A80704753
:101E50005C00002001460A4B1B88581CC31700EB8E
:101E6000D3535B12A0EB43239AB2054840889042BB
:101E700005D003480388001DC154001F028070472D
:101E80005C00002000200449488008800349086065
:101E900003490880704700005C0000201400002007
:101EA000180000200748008800F50070054A528895
:101EB000811AC81701EBD0504012A1EB402080B22C
:101EC000704700005C00002000B585B001210820AB
:101ED000FFF7F4F901218804FFF7E0F94FF480607F
:101EE000ADF8100003208DF8120018208DF81300B3
:101EF00004A92448FEF739FD4FF40060ADF8100046
:101F000048208DF8130004A91E48FEF72EFD4FF45B
:101F1000165000900020ADF80600ADF80800ADF8AE
:101F20000400002228211848FFF79BFD0020ADF88F
:101F30000C000C20ADF80A0069461348FFF7B6FD07
:101F4000FEF75AFE012240F225510F48FFF789FDA6
:101F500001210D48FFF7FEFC4FF48050ADF8100052
:101F600003208DF8120010208DF8130004A90548F5
:101F7000FEF7FBFC4FF480510248FEF7A7FD05B0C9
:101F800000BD0000000C01400048004070B5024652
:101F90000C46FF25FF2309E012F8010B80EA03013C
:101FA0000648405C80EA05030548455C201EA4F114
:101FB0000106B4B2F0D143EA052070BDC41F000889
:101FC000C420000800C1814001C0804101C080419F
:101FD00000C1814001C0804100C1814000C18140F9
:101FE00001C0804101C0804100C1814000C18140E9
:101FF00001C0804100C1814001C0804101C08041D9
:1020000000C1814001C0804100C1814000C18140C8
:1020100001C0804100C1814001C0804101C08041B8
:1020200000C1814000C1814001C0804101C08041A8
:1020300000C1814001C0804100C1814000C1814098
:1020400001C0804101C0804100C1814000C1814088
:1020500001C0804100C1814001C0804101C0804178
:1020600000C1814000C1814001C0804101C0804168
:1020700000C1814001C0804100C1814000C1814058
:1020800001C0804100C1814001C0804101C0804148
:1020900000C1814001C0804100C1814000C1814038
:1020A00001C0804101C0804100C1814000C1814028
:1020B00001C0804100C1814001C0804101C0804118
:1020C00000C1814000C0C101C30302C2C60607C7E8
:1020D00005C5C404CC0C0DCD0FCFCE0E0ACACB0B58
:1020E000C90908C8D81819D91BDBDA1A1EDEDF1F88
:1020F000DD1D1CDC14D4D515D71716D6D21213D378
:1021000011D1D010F03031F133F3F23236F6F73727
:10211000F53534F43CFCFD3DFF3F3EFEFA3A3BFB17
:1021200039F9F83828E8E929EB2B2AEAEE2E2FEFC7
:102130002DEDEC2CE42425E527E7E62622E2E32337
:10214000E12120E0A06061A163A3A26266A6A76767
:10215000A56564A46CACAD6DAF6F6EAEAA6A6BABD7
:1021600069A9A86878B8B979BB7B7ABABE7E7FBF07
:102170007DBDBC7CB47475B577B7B67672B2B373F7
:10218000B17170B0509091519353529296565797A7
:10219000559594549C5C5D9D5F9F9E5E5A9A9B5B97
:1021A00099595898884849894B8B8A4A4E8E8F4F47
:1021B0008D4D4C8C448485458747468682424383B7
:1021C00041818040E4210008000000205C00000004
:1021D000901C0008402200085C0000209C060000C3
:1021E000A01C000800000000010203040102030417
:1021F00006070809020406080000000000000000AD
:1022000000080000000000000000000000000000C6
:102210000000000000000000000000008813000023
:1022200088130000881300008813000000000000DD
:10223000000000000000000000000000000000009E
:04000005080000ED02
:00000001FF
