:020000040800F2
:10000000C8060020010100088F09000887090008C0
:100010008B0900081F0700089D2100080000000050
:10002000000000000000000000000000E9130008CC
:100030002307000800000000EF0F000897180008D1
:100040001B0100081B0100081B0100081B01000820
:100050001B0100081B0100081B0100081B01000810
:100060001B0100081B0100081B0100081B01000800
:100070001B0100081B0100081B0100081B010008F0
:100080001B0100081B0100081B0100081B010008E0
:100090001B0100081B0100081B0100081B010008D0
:1000A0001B0100081B0100081B0100081B010008C0
:1000B0001B0100081B010008F91800081B010008BB
:1000C0001B0100081B0100081B0100081B010008A0
:1000D0001B010008F11A00081B010008151B00088D
:1000E0001B0100081B0100081B010008DFF80CD0F1
:1000F00000F02EF9004800471D230008C806002024
:100100000648804706480047FEE7FEE7FEE7FEE7B1
:10011000FEE7FEE7FEE7FEE7FEE7FEE799180008C8
:10012000ED00000840EA01039B0703D009E008C97D
:10013000121F08C0042AFAD203E011F8013B00F8AC
:10014000013B521EF9D270470FB400B58DB010A913
:1001500009900B9000914FF0FF300A9000200C9016
:1001600005480690054807906A4609A80F9900F0CF
:10017000C1F80DB05DF814FB110300082F0300084F
:100180002DE9FF5F1D464FF0FF3BD5E90146914643
:100190005F464FF00008A9697F1C01988847296ACB
:1001A000824688470028F6D1BAF1FF3F0CD024F4EC
:1001B000C064002E19DD600614D5BAF12B0F09D0EA
:1001C000BAF12D0F0ED103E0584604B0BDE8F09F00
:1001D00044F48064A9697F1C01988847761E824692
:1001E000002E02DDBAF1300F03D0B9F1000F26D096
:1001F00032E0A969761E44F400747F1C0198884798
:100200008246002E05DDBAF1780F06D0BAF1580FFC
:1002100003D0B9F1000F10D01EE0B9F1000F02D0E9
:10022000B9F1100F18D1A969761E24F400747F1C4F
:10023000019888478246102002E0082000E00A204A
:10024000814609E008FB0908A969761E44F4007498
:100250007F1C019888478246002E05DD494650469E
:1002600000F034F80028EDDAE96901988847A00524
:1002700002D46FF00100A8E7E00725D1600613D58E
:10028000600502D5C8F1000000E0404629680A1D5B
:100290002A600968220501D5087015E0220701D5FA
:1002A000088011E008600FE02868011D29600068DF
:1002B000210502D580F8008006E0210702D5A0F8CC
:1002C000008001E0C0F8008038467EE73A2800D27E
:1002D000303820F02002412A01D3A2F137008842B1
:1002E00001D34FF0FF30704702681144137801606A
:1002F00018467047D16004495161044911620021D8
:100300001161114600F03CB8E902000875030008CD
:10031000426842B1016811F8013B23B1521EC0E9A5
:100320000012184670470121C160881E704742685C
:100330005AB1C368016843B983688B4205D0491E2E
:10034000521CC0E90012002070474FF0FF30704788
:10035000064C074D06E0E06840F0010394E8070012
:1003600098471034AC42F6D3FFF7C4FE9827000834
:10037000B8270008C0B24FF4F05100F097B9000060
:100380002DE9F34F8BB04FF0000801F10C000C4643
:100390004FF0010B46460DF1080A019062690121F8
:1003A00001989047051E2DD0252D2CD0216A884715
:1003B000C0B16269012101989047216A88470028ED
:1003C000F7D1411E62690198904700E0761CA1694F
:1003D0000B988847216A88470028F7D1E1690B9874
:1003E0008847DBE7A1690B9888470746A84201D1F7
:1003F000761CD3E7E1690B9888477F1C02D1B8F1DE
:10040000000F6FD046E1002762693D4639460198EA
:1004100090472A2804D1626901210198904701255B
:10042000DFF884926269012101989047A0F13001C0
:100430000A290AD24F45E5DC07EB870100EB4107AB
:10044000303FDFD445F01005ECE7E90601D46FF04A
:1004500000476C280AD04C2814D0682815D06A2888
:100460000DD074281CD07A281AD01DE062690121B1
:10047000019890476C2802D045F0040514E045F03F
:1004800002050DE045F020050AE0626901210198AE
:100490009047682802D045F0080505E045F400655E
:1004A0006269012101989047C4E9015765283DD050
:1004B00019DC58287AD00CDC452837D004DC2528F4
:1004C00026D0412831D131E046282FD047282CD1E1
:1004D0002CE05B2877D0612828D063287CD0642862
:1004E00023D15AE0D0E06F2848D008DC66281DD020
:1004F00067281BD0692821D06E2816D127E07028E4
:1005000045D0732868D0752847D078280DD14DE0A4
:10051000A1690B988847054625283FF469AFE16932
:100520000B9888476D1C3FF46AAFB3E023466A46D8
:100530006FF001000B99AFF300809EE045F04000A2
:100540006060A80723464FF0000236D43EE0E8077B
:100550007FF447AF2068011D21600068290501D59F
:1005600006701BE7290701D5068017E7A90703D501
:10057000F117C0E9006111E706600FE745F04000A0
:100580006060A80723464FF0080216D41EE040F62C
:100590000E0125EA0100606016E045F04000606051
:1005A000A80723464FF00A0207D40FE045F04000A9
:1005B0006060A80708D5234610226FF001000B9950
:1005C000AFF3008059E007E0234610226FF00100EE
:1005D0000B99FFF7D5FD50E04FF000094F464B4611
:1005E000632802D05B2806D040E0E80601D4012051
:1005F000A06001273AE062690121019890475E28D6
:1006000005D14FF001096269494601989047216977
:1006100039B900210A46534643F82120491C0829CC
:10062000FADBB0B3216969B9C11700EBD16253118C
:100630000AEB830122F01F02821A01200B6890400E
:1006400003430B6062690121019890475D28E8D15E
:10065000B9F1000F09D00020514651F82020D243B3
:1006600041F82020401C0828F7DB02AB2246009707
:100670006FF001000B99AFF3008000280CDA401CEA
:1006800008D1BBF1000F05D04FF0FF300DB0BDE831
:10069000F08FFFE74046F9E7E90701D108F10108CB
:1006A00006444FF0000B79E6CCCCCC0C7F2801D966
:1006B000002208E0064A02EB5002C007127800D17F
:1006C000120902F00F02012090400840704700001C
:1006D0005426000870B504460D46EE2000F086FE54
:1006E000B12000F083FE202000F080FE200A00F000
:1006F0007DFEE0B200F07AFE280A00F077FEE8B254
:1007000000F074FEFF2000F071FEFC2000F06EFE91
:10071000FF2000F06BFEFF2000F068FE70BD00BF00
:10072000FEE770472DE9F041024600250026002033
:1007300000230024002791F803C00CF00F0591F866
:1007400003C00CF0100CBCF1000F03D091F802C0F4
:100750004CEA050591F800C0BCF1000F31D01468D7
:1007600000202BE04FF0010C0CFA00F3B1F800C0B0
:100770000CEA03069E4220D183004FF00F0C0CFAC6
:1007800003F7BC4305FA03FC4CEA040491F803C0E8
:10079000BCF1280F06D14FF0010C0CFA00FCC2F896
:1007A00014C00AE091F803C0BCF1480F05D14FF026
:1007B000010C0CFA00FCC2F810C0401C0828D1D370
:1007C0001460B1F800C0BCF1FF0F34DD54680020A4
:1007D0002EE000F1080C4FF0010808FA0CF3B1F814
:1007E00000C00CEA03069E4221D183004FF00F0C9B
:1007F0000CFA03F7BC4305FA03FC4CEA040491F835
:1008000003C0BCF1280F05D100F1080C08FA0CF860
:10081000C2F8148091F803C0BCF1480F07D100F171
:10082000080C4FF0010808FA0CF8C2F81080401CC0
:100830000828CED35460BDE8F081000008B501213E
:10084000142000F0C5FC4020ADF8000048208DF8D1
:10085000030069460A48FFF765FF0120ADF8000074
:1008600010208DF8030003208DF80200694605482A
:10087000FFF758FF0121034800F008F808BD000009
:10088000001001400008014041617047016170475C
:1008900070B504460D46EE2000F0A8FDB12000F032
:1008A000A5FD112000F0A2FD200A00F09FFDE0B29E
:1008B00000F09CFD280A00F099FDE8B200F096FDDA
:1008C000FF2000F093FDFC2000F090FDFF2000F0E1
:1008D0008DFDFF2000F08AFD70BD00000D4800680E
:1008E000C82816D00B480068B0F5C87F11D0094859
:1008F0000068B0F5167F0CD006480068B0F5487F58
:1009000007D004480068B0F57A7F02D10020014981
:1009100008607047380000202DE9F04104460D467C
:1009200017469846069EEE2000F060FDB12000F0CC
:100930005DFD322000F05AFD200A00F057FDE0B2C4
:1009400000F054FD280A00F051FDE8B200F04EFD21
:10095000F8B200F04BFD300A00F048FDF0B200F0B4
:1009600045FD3146404600F059FDFF2000F03EFDB8
:10097000FC2000F03BFDFF2000F038FDFF2000F0E0
:1009800035FDBDE8F08100BFFEE700BFFEE7704720
:1009900010B501220221032000F070FD10BD08B542
:1009A0004FF4A06000F05CF827208DF800000120D3
:1009B0008DF801008DF802008DF80300684600F004
:1009C00017F808BD08B54FF4A06000F049F82520DD
:1009D0008DF8000001208DF8010000208DF8020044
:1009E00001208DF80300684600F002F808BD000001
:1009F00070B5002100230F22C47804B3154C24687D
:100A000004F4E064C4F5E064210AC1F10403CA40BF
:100A1000447804FA03F184781440214309010E4C10
:100A20000678A155047804F01F050124AC40057830
:100A30006D11AD0005F1E025C5F8004109E004782D
:100A400004F01F050124AC40044D0678761145F8EA
:100A5000264070BD0CED00E000E400E080E100E025
:100A600002490143024A1160704700000000FA0584
:100A70000CED00E0F8B505460C461646032D0AD1EC
:100A80000A2C03D100204F49086004E0032C02D156
:100A900001204C490860082D05D1082C03D1012EF6
:100AA00001D100F00FFC0D2D40D1042C3ED1464861
:100AB0000078002809DB44480078062805DC00227D
:100AC00003210D2000F0AFFD28E03F480078072803
:100AD00009DB3D4800780C2805DC012203210D20AC
:100AE00000F0A1FD1AE0384800780D2809DB3648EF
:100AF0000078122805DC022203210D2000F093FD6E
:100B00000CE031480078122808DD2F4800781728BB
:100B100004DC032211460D2000F085FD2A480078F0
:100B20002A4908702A4800782A4908700D2D0DD1ED
:100B3000052C0BD12548027801210D2000F073FD12
:100B40002448027802210D2000F06DFD052D38D1DA
:100B5000032C1AD120480068401E1F49086008462F
:100B60000068002801DC002008601B4801210268A1
:100B7000052000F024FD01200023009016480221EA
:100B80000268052000F0ECFD1BE0042C19D112488E
:100B90000068401C1049086008460068642801DBB2
:100BA000642008600C4801210268052000F007FD60
:100BB000012000230090084802210268052000F06F
:100BC000CFFDF8BD58000020640000206600002022
:100BD0006500002067000020680000207047704713
:100BE000F8B504460E461546052C0AD105480560A1
:100BF000012000230090034802210268052000F034
:100C0000AFFDF8BD68000020704700002DE9F04FEF
:100C100087B005460E4617469846DDE911ABDDF86C
:100C200040900BF00F00CBF3071101EB810100EBBB
:100C300041005049086005F00F00C5F3071101EBB2
:100C4000810100EB4100069006F00F00C6F307118A
:100C500001EB810100EB4100059007F00F00C7F3A5
:100C6000071101EB810100EB410408F00F00C8F30C
:100C7000071101EB810100EB4100049009F00F0026
:100C8000C9F3071101EB810100EB410003900AF069
:100C90000F00CAF3071101EB810100EB4100029044
:100CA00001200346009001460820069A00F058FDF6
:100CB00001200346009002210820059A00F050FD13
:100CC00001200346009003210820049A00F048FD0B
:100CD00001200346009004210820039A00F040FD03
:100CE00001200346009005210820029A00F038FDFB
:100CF0000120034600901F4806210268082000F0EA
:100D00002FFD2CB91CA20721082000F06FFD2EE05A
:100D1000012C05D11AA20721082000F067FD26E06A
:100D2000022C05D118A20721082000F05FFD1EE06B
:100D3000032C05D116A20721082000F057FD16E06C
:100D4000042C05D114A20721082000F04FFD0EE06D
:100D5000052C05D112A20721082000F047FD06E06E
:100D6000062C04D110A20721082000F03FFD07B097
:100D7000BDE8F08F54000020D0C7C6DAC8D5000007
:100D8000D0C7C6DAD2BB0000D0C7C6DAB6FE0000B4
:100D9000D0C7C6DAC8FD0000D0C7C6DACBC4000091
:100DA000D0C7C6DACEE50000D0C7C6DAC1F9000068
:100DB0001FB504463F480480032C04D1012211468C
:100DC000032000F05BFB3B480088092802D1012189
:100DD000FFF780FC37480088052802D10121FFF782
:100DE00057FD344800880E2809D133A30FCB8DE876
:100DF0000F006A4601210E2000F0F8FC00BF2D48CC
:100E000000880F2844D100231A46012100F0ADFAD2
:100E10000023012211460F2000F0A7FA002302222E
:100E200001210F2000F0A1FA0023032201210F204D
:100E300000F09BFA0023042201210F2000F095FA14
:100E40000023052201210F2000F08FFA0023062243
:100E500001210F2000F089FA0023072201210F2031
:100E600000F083FA4FF4FA6001F04CFA00231A46BE
:100E700001210F2000F03AFA0023012211460F2031
:100E800000F034FA0023022201210F2000F02EFA94
:100E90000848008811280CD10B4903C9CDE902018B
:100EA00001220321112000F0E9FA02A800F0A0F8C5
:100EB00000BF1FBD3C0000207777772E677A2D6436
:100EC000632E636F6D000000982500080D2803D184
:100ED000012901D1044B1A700D2803D1022901D137
:100EE000024B1A707047000064000020650000206B
:100EF0007CB505460E46144600200190072D1CD1F6
:100F0000022E1AD1642C00D3BCB122460121072045
:100F100000F055FB0120002322460321009007200A
:100F200000F01EFCFF20A0EB44020EA101A801F07E
:100F300037F99DF8040000F089FA072D11D1052E2C
:100F40000FD1642C00D364B122460421072000F0A5
:100F500036FB01200023224606210090072000F0E6
:100F6000FFFB7CBD256300002DE9FC4104460D46D6
:100F70001646042C29D10020019001AA14A1304664
:100F8000FFF7E2F8022D1FD10198002802DA0020B5
:100F9000019006E00198B0F5BE7F02DD4FF4BE700F
:100FA000019001200023009002210420019A00F00A
:100FB000D7FB0120019F009007EBD770421001235F
:100FC0000521042000F0CCFB00BFBDE8FC8100003F
:100FD000256C640070B505460C46082D04D1072C1D
:100FE00002D1642000F073FA70BD704770477047FB
:100FF00070B504460025EE2000F0F8F944B100BFBA
:1010000004E0605D00F0F2F9681CC5B2132DF8DB56
:10101000FF2000F0EBF9FC2000F0E8F9FF2000F0E1
:10102000E5F9FF2000F0E2F970BD00002DE9FE4F68
:1010300004460D466678A77894F807802079E17811
:1010400040EA0129A079617940EA012A207A010663
:10105000607A41EA0041A07A41EA0020E17A40EA60
:10106000010B0D2E2CD008DC012E0FD0032E0ED03C
:101070000B2E29D00C2E6FD11EE00F2E2CD0552E0A
:101080006BD0B12E43D0F72EF5D12BE000BF474BEC
:101090005B79DFF818C19CF804C043EA0C22434B8B
:1010A000DB78DFF808C19CF802C043EA0C213F4B13
:1010B0005878FFF79AFF76E00120FFF797FF72E07C
:1010C0000020FFF793FF6EE0A81F82B23749891C0A
:1010D0000120FFF799FD66E0002211461046FFF758
:1010E00093FD60E03148017AC079304A9279DFF8A7
:1010F000BCC0CDE9002002919CF805309CF804208A
:101100009CF803109CF80200FFF780FD4BE0012FD4
:1011100003D14846FFF74CFE40E0A8F110000C2830
:101120003AD2DFE800F0060C131B21393934393983
:10113000272E627A51464846FFF79CFC2DE004F1C9
:10114000080251464846FFF70FFF26E05A4651462F
:101150004846FFF745FD20E024E020E05A4651468E
:101160004846FFF7C5FE18E05A4651464846FFF785
:1011700036FD12E0637A227A51464846FFF72EFD8B
:101180000BE0227A51464846FFF7A0FE05E05146A3
:101190004846FFF71FFF00E000BF00BF03E0FFF776
:1011A000F7FB00E000BF00BFBDE8FE8F8802002013
:1011B00029B1064AD2690243044BDA6104E0034ACA
:1011C000D2698243014BDA6170470000001002408F
:1011D00029B1064A92690243044B9A6104E0034A2A
:1011E00092698243014B9A617047000000100240EF
:1011F00030B500210022002400232D4D6D6805F03C
:101200000C0121B1042905D0082923D105E0294D7D
:10121000056022E0274D05601FE0254D6D6805F44F
:101220007012234D6D6805F48034022505EB92425F
:101230001CB9214D554305600BE01D4D6D6805F44B
:1012400000351DB11C4D5543056002E0194D554355
:10125000056002E0174D056000BF00BF144D6D68CA
:1012600005F0F0010909154D6B5C0568DD4045602E
:101270000F4D6D6805F4E061090A104D6B5C45681F
:10128000DD4085600A4D6D6805F46051C90A0B4D5B
:101290006B5C4568DD40C560054D6D6805F44041F7
:1012A000890B074D6B5CC568B5FBF3F5056130BD77
:1012B0000010024000127A0000093D0000000020EA
:1012C0001000002010B5EE2000F090F8822000F011
:1012D0008DF8FF2000F08AF8FC2000F087F8FF204E
:1012E00000F084F8FF2000F081F810BD2DE9F041F6
:1012F00004460D4616461F464FF00008EE2000F04B
:1013000075F8B12000F072F8512000F06FF8200A53
:1013100000F06CF8E0B200F069F8280A00F066F816
:10132000E8B200F063F8300A00F060F8F0B200F0C4
:101330005DF867B100BF07E017F8080000F056F845
:1013400008F1010000F0FF08B8F1070FF4DBFF20FF
:1013500000F04CF8FC2000F049F8FF2000F046F8BF
:10136000FF2000F043F8BDE8F0812DE9F04104468C
:101370000D4616461F464FF00008EE2000F036F8E6
:10138000B12000F033F8502000F030F8200A00F0CF
:101390002DF8E0B200F02AF8280A00F027F8E8B2A9
:1013A00000F024F8300A00F021F8F0B200F01EF846
:1013B00067B100BF07E017F8080000F017F808F160
:1013C000010000F0FF08B8F1070FF4DBFF2000F088
:1013D0000DF8FC2000F00AF8FF2000F007F8FF20CD
:1013E00000F004F8BDE8F0817047000010B5044635
:1013F0002146094800F0EDFD00BF8021064800F0BD
:1014000013FD0028F9D000BF4021034800F00CFD77
:101410000028F9D010BD00000038014070B5054625
:101420000E46002404E0285DFFF7E0FF601C84B254
:10143000B442F8DB70BD10B5044603E02078FFF736
:10144000D5FF641C20780028F8D110BD10B50446E3
:10145000EE20FFF7CBFF6020FFF7C8FFE0B2FFF7F9
:10146000C5FFFF20FFF7C2FFFC20FFF7BFFFFF20F3
:10147000FFF7BCFFFF20FFF7B9FF10BD70B50446B2
:101480000D461646EE20FFF7B1FFB120FFF7AEFF85
:101490001020FFF7ABFF200AFFF7A8FFE0B2FFF72D
:1014A000A5FF280AFFF7A2FFE8B2FFF79FFFF0B2FF
:1014B000FFF79CFFFF20FFF799FFFC20FFF796FF47
:1014C000FF20FFF793FFFF20FFF790FF70BD10B5DF
:1014D0000446EE20FFF78AFF6120FFF787FFE0B2A6
:1014E000FFF784FFFF20FFF781FFFC20FFF77EFF5F
:1014F000FF20FFF77BFFFF20FFF778FF10BD70B5DF
:1015000004460D461646EE20FFF770FFB120FFF7A8
:101510006DFF1820FFF76AFF200AFFF767FFE0B2B0
:10152000FFF764FF280AFFF761FFE8B2FFF75EFFED
:10153000300AFFF75BFFF0B2FFF758FFFF20FFF71D
:1015400055FFFC20FFF752FFFF20FFF74FFFFF2062
:10155000FFF74CFF70BD70B505460E461446EE20F1
:10156000FFF744FFB120FFF741FF1020FFF73EFFD8
:10157000280AFFF73BFFE8B2FFF738FF300AFFF712
:1015800035FFF0B2FFF732FF200EFFF72FFFC4F355
:101590000740FFF72BFFC4F30720FFF727FFE0B258
:1015A000FFF724FFFF20FFF721FFFC20FFF71EFFBE
:1015B000FF20FFF71BFFFF20FFF718FF70BD70B57E
:1015C00005460E461446EE20FFF710FFB120FFF748
:1015D0000DFF1020FFF70AFF280AFFF707FFE8B208
:1015E000FFF704FF300AFFF701FFF0B2FFF7FEFE3E
:1015F000200EFFF7FBFEC4F30740FFF7F7FEC4F32E
:101600000720FFF7F3FEE0B2FFF7F0FEFF20FFF741
:10161000EDFEFC20FFF7EAFEFF20FFF7E7FEFF20CC
:10162000FFF7E4FE70BD70B504460D461646EE2089
:10163000FFF7DCFEB120FFF7D9FE1020FFF7D6FE42
:10164000200AFFF7D3FEE0B2FFF7D0FE280AFFF72B
:10165000CDFEE8B2FFF7CAFEF0B2FFF7C7FEFF20EB
:10166000FFF7C4FEFC20FFF7C1FEFF20FFF7BEFE20
:10167000FF20FFF7BBFE70BD10B500F001F810BDF4
:101680000CB50020019000903348006840F4803091
:101690003149086000BF3048006800F40030009015
:1016A0000198401C0190009818B90198B0F5A06FFE
:1016B000F1D12948006800F4003010B101200090F9
:1016C00001E0002000900098012843D123480068E1
:1016D00040F01000214908600846006820F003002F
:1016E00008600846006840F0020008601A48406838
:1016F000194948600846406848600846406840F418
:10170000806048600846406820F47C1048600846C5
:10171000406840F4E81048600846006840F0807077
:10172000086000BF0C48006800F000700028F9D085
:101730000948406820F003000749486008464068AF
:1017400040F00200486000BF0348406800F00C0011
:101750000828F9D10CBD0000001002400020024012
:101760002DE9F04105460E4614461F46DDF8188067
:10177000EE20FFF73BFEB120FFF738FE0720FFF712
:1017800035FE280AFFF732FEE8B2FFF72FFE300AD7
:10179000FFF72CFEF0B2FFF729FE0FB1012100E0A8
:1017A0000021C8B2FFF722FE08F00F0141F08000CF
:1017B000FFF71CFE200EFFF719FEC4F30740FFF7EA
:1017C00015FEC4F30720FFF711FEE0B2FFF70EFE8F
:1017D000FF20FFF70BFEFC20FFF708FEFF20FFF7BE
:1017E00005FEFF20FFF702FEBDE8F08170B504465C
:1017F0000D461646EE20FFF7F9FDB120FFF7F6FD86
:101800001020FFF7F3FD200AFFF7F0FDE0B2FFF72D
:10181000EDFD280AFFF7EAFDE8B2FFF7E7FD3046E5
:10182000FFF709FEFF20FFF7E1FDFC20FFF7DEFDDB
:10183000FF20FFF7DBFDFF20FFF7D8FD70BD70B57F
:1018400004460D461646EE20FFF7D0FDB120FFF707
:10185000CDFD1020FFF7CAFD200AFFF7C7FDE0B25B
:10186000FFF7C4FD280AFFF7C1FDE8B2FFF7BEFD90
:10187000300AFFF7BBFDF0B2FFF7B8FDFF20FFF71E
:10188000B5FDFC20FFF7B2FDFF20FFF7AFFDFF2005
:10189000FFF7ACFD70BD704710B51348006840F00D
:1018A00001001149086008464068104908400E4987
:1018B0004860084600680E4908400B490860084621
:1018C000006820F4802008600846406820F4FE008C
:1018D00048604FF41F008860FFF7CEFE4FF00060B5
:1018E0000449086010BD0000001002400000FFF82D
:1018F000FFFFF6FE08ED00E010B50121064800F0FC
:1019000078F840B105480068401C0449086001218E
:10191000014800F056F810BD0008004038000020D3
:101920000EB500F080F801210220FFF741FC4720AE
:10193000ADF800000020ADF802000920ADF8040069
:101940000020ADF806006946144800F07FF8012138
:10195000124800F027F801210420FFF729FC472056
:10196000ADF800000020ADF8020040F2E730ADF81D
:1019700004000020ADF806006946094800F066F84A
:101980000121074800F01AF801221146044800F02E
:1019900041F80121024800F017F80EBD0004004094
:1019A0000008004021B1028842F08002028004E079
:1019B00002884FF67F731A4002807047CA43028242
:1019C0007047CA430282704721B1028842F0010287
:1019D000028004E002884FF6FE731A4002807047CE
:1019E00002460020138A0B400BB1012000E00020CA
:1019F000704730B50246002000230024158A05EA0E
:101A00000103958905EA010413B10CB1012000E03E
:101A1000002030BD1AB183890B43838102E08389A2
:101A20008B438381704708B54FF4A060FFF718F827
:101A30001E208DF8000001208DF801008DF80200B5
:101A40008DF803006846FEF7D3FF08BD0022028828
:101A50001D4B98420ED01D4B98420BD0B0F1804FD9
:101A600008D01B4B984205D01A4B984202D01A4B13
:101A7000984204D14FF68F731A404B881A43174B84
:101A8000984207D0164B984204D04FF6FF431A40B5
:101A9000CB881A4302808B8883850B8803850A4B89
:101AA00098420BD0094B984208D00E4B984205D073
:101AB0000D4B984202D00D4B984201D10B7A038610
:101AC0000123838270470000002C01400034014054
:101AD0000004004000080040000C004000100040DE
:101AE0000014004000400140004401400048014013
:101AF00010B540F22551064800F0A3F938B104486A
:101B000000F062FAC4B2204600F0AAFC00BF10BD8B
:101B10000038014010B540F22551914800F091F98C
:101B200000287DD08E4800F04FFAC1B28D4802786F
:101B30000078401C8B4B18708B48815418460078F5
:101B400007286DD100201946087087480179C078B0
:101B500001EB00208549088008460088642817DAD0
:101B60003020834908702E204870804800880A2160
:101B700090FBF1F030307E4988707C4800880A2163
:101B800090FBF1F201FB120030307949C87072E02D
:101B90007648008864282BDB74480088B0F57A7F8B
:101BA00026DA72480088642190FBF1F030307049E9
:101BB00008702E2048706D480088642190FBF1F277
:101BC00001FB12000A2190FBF1F030306849887067
:101BD00066480088642190FBF1F201FB12000A21A3
:101BE00090FBF1F201FB120030306149C87042E015
:101BF0005E4800884FF47A7190FBF1F030305C4918
:101C000008705A4800884FF47A7190FBF1F201FB9A
:101C10001200642190FBF1F030305549487000E02B
:101C20006CE02E208870514800884FF47A7190FB48
:101C3000F1F201FB1200642190FBF1F201FB1200B2
:101C40000A2190FBF1F030304949C87047480088BC
:101C50004FF47A7190FBF1F201FB1200642190FBCA
:101C6000F1F201FB12000A2190FBF1F201FB1200DC
:101C700030303F4908713C4800793E4908800846A9
:101C80000088642814DA084600880A2190FBF1F0E5
:101C90003030394908702E204870364800880A21B3
:101CA00090FBF1F201FB120030303349087025E05F
:101CB00030480088642190FBF1F030302E490870E4
:101CC0002C480088642190FBF1F201FB12000A21EC
:101CD00090FBF1F03030284948702E20887025485C
:101CE0000088642190FBF1F201FB12000A2190FBB5
:101CF000F1F201FB120030301F49C87040F2277129
:101D0000174800F09EF850B31C480078002809DD01
:101D10001A480078C0F10800194A115C104800F018
:101D200058F911E000BF40210D4800F07DF800286F
:101D3000F9D0002240F22771094800F0ACF84FF4C6
:101D400080511048FEF7A0FD0C48007810B909201A
:101D50000A49087009480078401E0849087010BDFB
:101D600000480040230000201C0000202E0000201E
:101D700074020020300000207E0200202C00002091
:101D800024000020000C014021B1828942F400525D
:101D9000828104E082894DF6FF731A408281704788
:101DA0001FB54FF4165000900020ADF80400ADF8B8
:101DB0000600ADF80800ADF80C000C20ADF80A00E4
:101DC0006946074800F08CF8012240F2255104488A
:101DD00000F061F801210248FFF7D6FF1FBD0000A7
:101DE0000038014008B5012144F20400FFF7F0F982
:101DF0004FF40070ADF8000003208DF802001820A9
:101E00008DF8030069460748FEF78CFC4FF48060AC
:101E1000ADF8000004208DF8030069460148FEF784
:101E200081FC08BD0008014002460020B1F5007F9A
:101E300000D100BF13880B400BB1012000E000204F
:101E4000704770B50246002400230025002040F6AC
:101E50006A16B14200D100BFC1F3421501F01F0361
:101E6000012606FA03F3012D02D19689334006E0DC
:101E7000022D02D1168A334001E0968A33400C12BB
:101E8000012606FA04F41688344013B10CB101207F
:101E900000E0002070BDF0B50346002400260025B8
:101EA000002040F66A17B94200D100BF1846C1F3BE
:101EB000421401F01F06012707FA06F5012C01D193
:101EC0000C3004E0022C01D1103000E014301AB1C3
:101ED00007682F43076002E00768AF430760F0BD63
:101EE0002DE9F04786B005460E460024A24600BF05
:101EF000A1460027B08900B100BF2F462C8A4CF6BE
:101F0000FF700440F08804432C82AC894EF6F31035
:101F10000440B08831890843718908430443AC8187
:101F2000AC8A4FF6FF400440B0890443AC8201A85C
:101F3000FFF75EF91F48874202D1DDF810A001E0EB
:101F4000DDF80CA0A88900F4004040B10AEBCA00FB
:101F500000EB0A1031684900B0FBF1F807E00AEB2A
:101F6000CA0000EB0A1031688900B0FBF1F8642068
:101F7000B8FBF0F004012009642101FB1089A88955
:101F800000F4004040B1322000EBC900B0FBF1F09A
:101F900000F00700044308E0322000EB0910642140
:101FA000B0FBF1F000F00F0004432C8106B0BDE857
:101FB000F08700000038014010B5FEF703FDFFF781
:101FC00011FFFFF7EDFE10BD01468888C0F3080041
:101FD0007047C1F3080282807047000010B5C2B09C
:101FE0006548008804284AD1644800684FF47A7133
:101FF00090FBF1F201FB120401200023224606218E
:1020000000900420FFF7ACFB5C4800684FF47A7145
:1020100090FBF1F201FB120401200023224607216C
:1020200000900420FFF79CFB55A201210420FFF73C
:10203000DDFB52480068401C5049086008460068B3
:10204000B0F57A7F01DB002008604C48006800286A
:102050000BDD4A480068B0F5FA7F06DA4FF47842A3
:1020600006210420FFF74BFA09E044480068B0F568
:10207000FA7F04DB1F2206210420FFF740FA3E48C6
:102080000088062831D140480068B0B93B4801219A
:1020900002680620FFF75FFA38480068401C37499D
:1020A000086008460068B0F5827F1EDB4FF482703E
:1020B000086001203449086017E0334800680128AF
:1020C00013D12E48008882B201210620FFF7B7FB0A
:1020D0002A480068401E2949086008460068002810
:1020E00003DC0020086028490860234800880B288A
:1020F0003FD126480068E0B94FF48072244902A815
:10210000FEF710F80220009002A82249096843183F
:10211000002201210B20FEF7FFFB1E480068801CF7
:102120001C49086008460068FF2801DB00200860A1
:102130001FE01648006801281BD1B422164915A8D3
:10214000FDF7F0FF0220009015A812490968431816
:10215000002201210B20FEF7DFFB0E480068801CE7
:102160000C49086008460068B42801DB00200860BC
:1021700000BF42B010BD00003C0000204400002021
:10218000BBFAB7BF313000004C00002058000020DF
:102190009426000850000020A025000800BFFEE79C
:1021A0000FB4084B10B504A902AA039800F01BF85D
:1021B000044602A9002000F081F8204610BC5DF81A
:1021C00014FB0000BD22000802E008C8121F08C16D
:1021D000002AFAD170477047002001E001C1121FA8
:1021E000002AFBD170472DE9F84F99469246884660
:1021F0000546002706E025280AD051464A46904762
:102200006D1C7F1C28780028F5D13846BDE8F88F72
:10221000002315F8011F18462E2915D115F8011FA6
:1022200004232A290DD06FF02F022978A1F1300460
:10223000092C09D800EB800002EB400008446D1C1B
:10224000F3E758F8040B6D1C2A78002ADDD0632AC6
:1022500007D0732A0FD0104651464A4690477F1C3C
:102260002AE018F8042B8DF8002000218DF80110C9
:102270006E46012103E058F8046B4FF0FF315A0716
:102280004FF0000401D409E0641C84420BDA8C4254
:10229000FADB325D002AF7D105E0641C8C42FCDBDE
:1022A000305D0028F9D1274404E016F8010B5146AF
:1022B0004A469047641EF8D26D1CA3E70A68531C77
:1022C0000B6010707047000010B5044601210C48E7
:1022D000FFF77AFB0AE000BF01210948FFF780FB06
:1022E0000028F9D001210648FFF768FB201EA4F161
:1022F00001018CB2EFD100210148FFF765FB10BD51
:102300000004004010B5044602E06420FFF7DCFF43
:10231000201EA4F101018CB2F7D110BD00BF002432
:10232000FFF7FEFA00F0D6F8FFF746FEFEF786FA52
:1023300000F0AEF84FF49670FFF7E4FF2CE0402178
:10234000164800F031F80446002C08DD13484078A8
:10235000072804D021461148FEF768FE15E0002C3E
:1023600013DD0E48407807280FD171B600BF0C4826
:10237000006800F4E0600B490843001D084908604C
:10238000BFF34F8F00BF00BFFEE7FEF7A7FAFFF7CE
:1023900025FE6420FFF7B6FFD1E700008802002089
:1023A0000CED00E00000FA05F8B504460D460026E5
:1023B000002000902FE0684600F038F819480088A7
:1023C00020B99DF80000EE2800D024E015480088D0
:1023D000A84208DA9DF80010124802880088401CC4
:1023E000104B1880A1549DF800000F49096840EA7D
:1023F00001200D490860084600686FF440318842AA
:1024000008D1084806880020074908600549088067
:102410003046F8BD00BF00F04BF80028CBDC0020B0
:10242000F7E70000180000201400002001460B48C8
:1024300040880A4A128890420FD008484288001DFE
:10244000805C0870054A5288501CC21700EBD252BB
:102450005212A0EB4222014B5A80704770000020BC
:1024600001460A4B1B88581CC31700EBD3535B1261
:10247000A0EB43239AB205484088904205D0034818
:102480000388001DC154001F0280704770000020A7
:1024900000200449488008800349086003490880F7
:1024A0007047000070000020140000201800002079
:1024B0000748008800F50070054A5288811AC8173D
:1024C00001EBD0504012A1EB402080B270470000D9
:1024D0007000002000B585B001210820FEF778FECD
:1024E00001218804FEF764FE4FF48060ADF810000F
:1024F00003208DF8120018208DF8130004A9244839
:10250000FEF710F94FF40060ADF8100048208DF888
:10251000130004A91E48FEF705F94FF41650009069
:102520000020ADF80600ADF80800ADF80400002268
:1025300028211848FFF7AFFC0020ADF80C000C2054
:10254000ADF80A0069461348FFF7CAFCFEF727FA00
:10255000012240F225510F48FFF79DFC01210D4853
:10256000FFF712FC4FF48050ADF8100003208DF8F7
:10257000120010208DF8130004A90548FEF7D2F8C8
:102580004FF480510248FEF77FF905B000BD00000E
:10259000000C0140004800409001000101000000D3
:1025A0000009121B242D363F48515A636C757E87F3
:1025B0009099A2ABB4BDC6CFD8E1EAF3FC000912F2
:1025C0001B242D363F48515A636C757E879099A223
:1025D000ABB4BDC6CFD8E1EAF3FC0009121B242D31
:1025E000363F48515A636C757E879099A2ABB4BD53
:1025F000C6CFD8E1EAF3FC0009121B242D363F4870
:10260000515A636C757E879099A2ABB4BDC6CFD882
:10261000E1EAF3FC0009121B242D363F48515A63AE
:102620006C757E879099A2ABB4BDC6CFD8E1EAF3B2
:10263000FC0009121B242D363F48515A636C757EED
:10264000879099A2ABB4BDC6CFD8E1EAF3FC0000F5
:1026500000000000DDDDDDDDDCBBBBDDDDDDDDDD63
:10266000DDDDDDDD988888888888888877777777CA
:102670007788888885555556666666666666666696
:102680006668888883333332222222222222222241
:102690002228888D010101010102030406080A0DA8
:1026A0000F1316191D21262A2F34393E44494F5540
:1026B0005B61676D73797F868C92989EA4AAB0B691
:1026C000BBC1C6CBD0D5D9DEE2E6E9ECF0F2F5F736
:1026D000F9FBFCFDFEFEFEFEFEFDFCFBF9F7F5F24C
:1026E000F0ECE9E6E2DED9D5D0CBC6C1BBB6B0AAE4
:1026F000A49E98928C868079736D67615B554F4973
:10270000443E39342F2A26211D1916130F0D0A08AD
:1027100006040302010101010102030406080A0D77
:102720000F1316191D21262A2F34393E44494F55BF
:102730005B61676D73797F868C92989EA4AAB0B610
:10274000BBC1C6CBD0D5D9DEE2E6E9ECF0F2F5F7B5
:10275000F9FBFCFDFEFEFEFEFEFDFCFBF9F7F5F2CB
:10276000F0ECE9E6E2DED9D5D0CBC6C1BBB6B0AA63
:10277000A49E98928C868079736D67615B554F49F2
:10278000443E39342F2A26211D1916130F0D0A082D
:102790000604030228000000B827000800000020FB
:1027A00070000000C82100082828000870000020E0
:1027B00058060000D82100080000000001020304B0
:1027C00001020304060708090204060800000000CD
:1027D00000000000000000000000000000000000F9
:1027E00000000000080000000000000000000000E1
:1027F00000000000000000000000000000000000D9
:1028000000000000000000000000000001000000C7
:1028100000000000000000000000000000000000B8
:082820000000000000000000B0
:04000005080000ED02
:00000001FF
