:020000040800F2
:10000000A006002001010008C1020008B902000892
:10001000BD02000849010008770C0008000000003C
:10002000000000000000000000000000B104000813
:100030004D01000800000000990300089D0500081C
:100040001B0100081B0100081B0100081B01000820
:100050001B0100081B0100081B0100081B01000810
:100060001B0100081B0100081B0100081B01000800
:100070001B0100081B0100081B0100081B010008F0
:100080001B0100081B0100081B0100081B010008E0
:100090001B0100081B0100081B0100081B010008D0
:1000A0001B0100081B0100081B0100081B010008C0
:1000B0001B0100081B0100081B0100081B010008B0
:1000C0001B0100081B0100081B0100081B010008A0
:1000D0001B0100088D0700081B010008B10700087C
:1000E0001B0100081B0100081B010008DFF80CD0F1
:1000F00000F018F800480047990C0008A0060020FE
:100100000648804706480047FEE7FEE7FEE7FEE7B1
:10011000FEE7FEE7FEE7FEE7FEE7FEE7A1050008D3
:10012000ED000008064C074D06E0E06840F00103D2
:1001300094E8070098471034AC42F6D3FFF7DAFF93
:10014000CC0D0008EC0D000800BFFEE770472DE95C
:10015000F04102460025002600200023002400274D
:1001600091F803C00CF00F0591F803C00CF0100CCF
:10017000BCF1000F03D091F802C04CEA050591F8DC
:1001800000C0BCF1000F31D0146800202BE04FF00C
:10019000010C0CFA00F3B1F800C00CEA03069E4211
:1001A00020D183004FF00F0C0CFA03F7BC4305FA83
:1001B00003FC4CEA040491F803C0BCF1280F06D1FB
:1001C0004FF0010C0CFA00FCC2F814C00AE091F8E0
:1001D00003C0BCF1480F05D14FF0010C0CFA00FC34
:1001E000C2F810C0401C0828D1D31460B1F800C078
:1001F000BCF1FF0F34DD546800202EE000F1080C44
:100200004FF0010808FA0CF3B1F800C00CEA03063D
:100210009E4221D183004FF00F0C0CFA03F7BC4330
:1002200005FA03FC4CEA040491F803C0BCF1280F62
:1002300005D100F1080C08FA0CF8C2F8148091F806
:1002400003C0BCF1480F07D100F1080C4FF00108C2
:1002500008FA0CF8C2F81080401C0828CED354606D
:10026000BDE8F08108B50121142000F0A7F8402076
:10027000ADF8000048208DF8030069460A48FFF7F2
:1002800066FF0120ADF8000010208DF80300032068
:100290008DF8020069460548FFF759FF0121034820
:1002A00000F008F808BD00000010014000080140FF
:1002B000416170470161704700BFFEE700BFFEE784
:1002C000704708B54FF4A06000F05CF827208DF867
:1002D000000001208DF801008DF802008DF8030068
:1002E000684600F017F808BD08B54FF4A06000F0AC
:1002F00049F825208DF8000001208DF8010000202C
:100300008DF8020001208DF80300684600F002F825
:1003100008BD000070B5002100230F22C47804B38B
:10032000154C246804F4E064C4F5E064210AC1F1CA
:100330000403CA40447804FA03F18478144021434A
:1003400009010E4C0678A155047804F01F0501241C
:10035000AC4005786D11AD0005F1E025C5F8004110
:1003600009E0047804F01F050124AC40044D067830
:10037000761145F8264070BD0CED00E000E400E089
:1003800080E100E002490143024A11607047000029
:100390000000FA050CED00E07047000029B1064AA4
:1003A000D2690243044BDA6104E0034AD269824312
:1003B000014BDA61704700000010024029B1064A83
:1003C00092690243044B9A6104E0034A92698243B2
:1003D000014B9A61704700000010024030B50021C7
:1003E0000022002400232D4D6D6805F00C0121B181
:1003F000042905D0082923D105E0294D056022E014
:10040000274D05601FE0254D6D6805F47012234DE2
:100410006D6805F48034022505EB92421CB9214D2C
:10042000554305600BE01D4D6D6805F400351DB1A9
:100430001C4D5543056002E0194D5543056002E02F
:10044000174D056000BF00BF144D6D6805F0F00149
:100450000909154D6B5C0568DD4045600F4D6D6801
:1004600005F4E061090A104D6B5C4568DD4085606C
:100470000A4D6D6805F46051C90A0B4D6B5C456807
:10048000DD40C560054D6D6805F44041890B074DA1
:100490006B5CC568B5FBF3F5056130BD001002402B
:1004A00000127A0000093D0000000020100000202A
:1004B000704710B500F002F810BD00000CB5002028
:1004C000019000903348006840F480303149086062
:1004D00000BF3048006800F4003000900198401CD4
:1004E0000190009818B90198B0F5A06FF1D1294892
:1004F000006800F4003010B10120009001E00020FD
:1005000000900098012843D12348006840F0100073
:10051000214908600846006820F00300086008468A
:10052000006840F0020008601A48406819494860B5
:100530000846406848600846406840F4806048606B
:100540000846406820F47C1048600846406840F443
:10055000E81048600846006840F08070086000BFFE
:100560000C48006800F000700028F9D00948406885
:1005700020F00300074948600846406840F0020048
:10058000486000BF0348406800F00C000828F9D11B
:100590000CBD000000100240002002407047000027
:1005A00010B51348006840F0010011490860084682
:1005B0004068104908400E494860084600680E49E6
:1005C00008400B4908600846006820F48020086055
:1005D0000846406820F4FE0048604FF41F00886021
:1005E000FFF767FF4FF000600449086010BD00008E
:1005F000001002400000FFF8FFFFF6FE08ED00E0EB
:1006000010B5044601210C4800F059F80AE000BF7B
:100610000121094800F05FF80028F9D001210648BF
:1006200000F04AF8201EA4F101018CB2EFD10021A4
:10063000014800F044F810BD0004004010B5044625
:1006400002E06420FFF7DCFF201EA4F101018CB260
:10065000F7D110BD0EB501210220FFF79FFE0D4816
:1006600000680D49B0FBF1F0401E80B2ADF800000B
:100670000020ADF802000920ADF804000020ADF81C
:1006800006006946054800F02FF80121034800F0F4
:1006900007F80EBD1400002040420F000004004087
:1006A00021B1028842F08002028004E002884FF605
:1006B0007F731A4002807047CA430282704721B19B
:1006C000028842F00102028004E002884FF6FE73C5
:1006D0001A400280704702460020138A0B400BB17B
:1006E000012000E000207047002202881D4B984244
:1006F0000ED01D4B98420BD0B0F1804F08D01B4B51
:10070000984205D01A4B984202D01A4B984204D115
:100710004FF68F731A404B881A43174B984207D0F5
:10072000164B984204D04FF6FF431A40CB881A4329
:1007300002808B8883850B8803850A4B98420BD0F7
:10074000094B984208D00E4B984205D00D4B984269
:1007500002D00D4B984201D10B7A0386012383828C
:1007600070470000002C01400034014000040040AC
:1007700000080040000C0040001000400014004041
:1007800000400140004401400048014010B540F2E3
:100790002551064800F0A3F938B1044800F062FA88
:1007A000C4B2204600F088FA00BF10BD00380140F6
:1007B00010B540F22551914800F091F900287DD004
:1007C0008E4800F04FFAC1B28D4802780078401C84
:1007D0008B4B18708B4881541846007807286DD1D0
:1007E00000201946087087480179C07801EB002085
:1007F0008549088008460088642817DA3020834934
:1008000008702E204870804800880A2190FBF1F083
:1008100030307E4988707C4800880A2190FBF1F2D4
:1008200001FB120030307949C87072E076480088C8
:1008300064282BDB74480088B0F57A7F26DA72488A
:100840000088642190FBF1F03030704908702E2050
:1008500048706D480088642190FBF1F201FB1200A2
:100860000A2190FBF1F030306849887066480088B2
:10087000642190FBF1F201FB12000A2190FBF1F2DE
:1008800001FB120030306149C87042E05E480088C8
:100890004FF47A7190FBF1F030305C4908705A489F
:1008A00000884FF47A7190FBF1F201FB1200642191
:1008B00090FBF1F030305549487000E06CE02E209C
:1008C0008870514800884FF47A7190FBF1F201FB77
:1008D0001200642190FBF1F201FB12000A2190FB4F
:1008E000F1F030304949C870474800884FF47A71B8
:1008F00090FBF1F201FB1200642190FBF1F201FB8D
:1009000012000A2190FBF1F201FB120030303F4946
:1009100008713C4800793E490880084600886428F0
:1009200014DA084600880A2190FBF1F0303039498A
:1009300008702E204870364800880A2190FBF1F29A
:1009400001FB120030303349087025E03048008840
:10095000642190FBF1F030302E4908702C4800885B
:10096000642190FBF1F201FB12000A2190FBF1F0EF
:100970003030284948702E2088702548008864212E
:1009800090FBF1F201FB12000A2190FBF1F201FB56
:10099000120030301F49C87040F22771174800F02C
:1009A0009EF850B31C480078002809DD1A480078EA
:1009B000C0F10800194A115C104800F058F911E024
:1009C00000BF40210D4800F07DF80028F9D000223A
:1009D00040F22771094800F0ACF84FF480511048FC
:1009E000FFF766FC0C48007810B909200A49087026
:1009F00009480078401E0849087010BD00480040B2
:100A0000350000202E000020400000204802002079
:100A100042000020520200203E000020360000204C
:100A2000000C014021B1828942F40052828104E02D
:100A300082894DF6FF731A40828170471FB54FF4CB
:100A4000165000900020ADF80400ADF80600ADF897
:100A50000800ADF80C000C20ADF80A006946074804
:100A600000F08CF8012240F22551044800F061F8B2
:100A700001210248FFF7D6FF1FBD000000380140EA
:100A800008B5012144F20400FFF798FC4FF4007010
:100A9000ADF8000003208DF8020018208DF8030047
:100AA00069460748FFF753FB4FF48060ADF800003C
:100AB00004208DF8030069460148FFF748FB08BD94
:100AC0000008014002460020B1F5007F00D100BFC0
:100AD00013880B400BB1012000E00020704770B577
:100AE0000246002400230025002040F66A16B14289
:100AF00000D100BFC1F3421501F01F03012606FA21
:100B000003F3012D02D19689334006E0022D02D174
:100B1000168A334001E0968A33400C12012606FA09
:100B200004F41688344013B10CB1012000E0002019
:100B300070BDF0B50346002400260025002040F6D5
:100B40006A17B94200D100BF1846C1F3421401F040
:100B50001F06012707FA06F5012C01D10C3004E02D
:100B6000022C01D1103000E014301AB107682F4375
:100B7000076002E00768AF430760F0BD2DE9F0476A
:100B800086B005460E460024A24600BFA1460027B7
:100B9000B08900B100BF2F462C8A4CF6FF7004408C
:100BA000F08804432C82AC894EF6F3100440B088E0
:100BB00031890843718908430443AC81AC8A4FF6FC
:100BC000FF400440B0890443AC8201A8FFF706FC53
:100BD0001F48874202D1DDF810A001E0DDF80CA02B
:100BE000A88900F4004040B10AEBCA0000EB0A10EB
:100BF00031684900B0FBF1F807E00AEBCA0000EBEE
:100C00000A1031688900B0FBF1F86420B8FBF0F0FD
:100C100004012009642101FB1089A88900F4004027
:100C200040B1322000EBC900B0FBF1F000F007004A
:100C3000044308E0322000EB09106421B0FBF1F01E
:100C400000F00F0004432C8106B0BDE8F0870000DF
:100C50000038014010B5FFF747FBFFF711FFFFF722
:100C6000EDFE10BD01468888C0F308007047C1F34F
:100C700008028280704700BFFEE702E008C8121F2A
:100C800008C1002AFAD170477047002001E001C175
:100C9000121F002AFBD17047FFF7DCFC00F034F88C
:100CA000FFF7D8FFFFF7DEFA00F01EF84FF496705A
:100CB000FFF7C4FC00BFFEE701460A4B1B88581C27
:100CC000C31700EBD3535B12A0EB43239AB2054842
:100CD0004088904205D003480388001DC154001F7E
:100CE00002807047440000200020044948800880AA
:100CF0000349086003490880704700004400002051
:100D0000280000202C00002000B585B0012108201B
:100D1000FFF754FB01218804FFF740FB4FF480608C
:100D2000ADF8100003208DF8120018208DF8130084
:100D300004A92448FFF70BFA4FF40060ADF8100047
:100D400048208DF8130004A91E48FFF700FA4FF45D
:100D5000165000900020ADF80600ADF80800ADF880
:100D60000400002228211848FFF7E3FE0020ADF818
:100D70000C000C20ADF80A0069461348FFF7FEFE90
:100D8000FFF79FFA012240F225510F48FFF7D1FEED
:100D900001210D48FFF746FE4FF48050ADF81000DA
:100DA00003208DF8120010208DF8130004A90548C7
:100DB000FFF7CDF94FF480510248FFF779FA05B0FB
:100DC00000BD0000000C014000480040EC0D000890
:100DD00000000020440000007A0C0008300E0008DB
:100DE000440000205C0600008A0C0008000000009F
:100DF00001020304010203040607080902040608AD
:100E000000A24A04000000000000000001020304E8
:100E100006070809000000000000000000000000B4
:100E200000000000000000000000080000000000BA
:04000005080000ED02
:00000001FF
